{
  "contractName": "WagyuRouter",
  "abi": [
    {
      "inputs": [
        {
          "internalType": "address",
          "name": "_factory",
          "type": "address"
        },
        {
          "internalType": "address",
          "name": "_WVLX",
          "type": "address"
        }
      ],
      "stateMutability": "nonpayable",
      "type": "constructor"
    },
    {
      "inputs": [],
      "name": "WVLX",
      "outputs": [
        {
          "internalType": "address",
          "name": "",
          "type": "address"
        }
      ],
      "stateMutability": "view",
      "type": "function",
      "constant": true
    },
    {
      "inputs": [],
      "name": "factory",
      "outputs": [
        {
          "internalType": "address",
          "name": "",
          "type": "address"
        }
      ],
      "stateMutability": "view",
      "type": "function",
      "constant": true
    },
    {
      "stateMutability": "payable",
      "type": "receive",
      "payable": true
    },
    {
      "inputs": [
        {
          "internalType": "address",
          "name": "tokenA",
          "type": "address"
        },
        {
          "internalType": "address",
          "name": "tokenB",
          "type": "address"
        },
        {
          "internalType": "uint256",
          "name": "amountADesired",
          "type": "uint256"
        },
        {
          "internalType": "uint256",
          "name": "amountBDesired",
          "type": "uint256"
        },
        {
          "internalType": "uint256",
          "name": "amountAMin",
          "type": "uint256"
        },
        {
          "internalType": "uint256",
          "name": "amountBMin",
          "type": "uint256"
        },
        {
          "internalType": "address",
          "name": "to",
          "type": "address"
        },
        {
          "internalType": "uint256",
          "name": "deadline",
          "type": "uint256"
        }
      ],
      "name": "addLiquidity",
      "outputs": [
        {
          "internalType": "uint256",
          "name": "amountA",
          "type": "uint256"
        },
        {
          "internalType": "uint256",
          "name": "amountB",
          "type": "uint256"
        },
        {
          "internalType": "uint256",
          "name": "liquidity",
          "type": "uint256"
        }
      ],
      "stateMutability": "nonpayable",
      "type": "function"
    },
    {
      "inputs": [
        {
          "internalType": "address",
          "name": "token",
          "type": "address"
        },
        {
          "internalType": "uint256",
          "name": "amountTokenDesired",
          "type": "uint256"
        },
        {
          "internalType": "uint256",
          "name": "amountTokenMin",
          "type": "uint256"
        },
        {
          "internalType": "uint256",
          "name": "amountVLXMin",
          "type": "uint256"
        },
        {
          "internalType": "address",
          "name": "to",
          "type": "address"
        },
        {
          "internalType": "uint256",
          "name": "deadline",
          "type": "uint256"
        }
      ],
      "name": "addLiquidityVLX",
      "outputs": [
        {
          "internalType": "uint256",
          "name": "amountToken",
          "type": "uint256"
        },
        {
          "internalType": "uint256",
          "name": "amountVLX",
          "type": "uint256"
        },
        {
          "internalType": "uint256",
          "name": "liquidity",
          "type": "uint256"
        }
      ],
      "stateMutability": "payable",
      "type": "function",
      "payable": true
    },
    {
      "inputs": [
        {
          "internalType": "address",
          "name": "tokenA",
          "type": "address"
        },
        {
          "internalType": "address",
          "name": "tokenB",
          "type": "address"
        },
        {
          "internalType": "uint256",
          "name": "liquidity",
          "type": "uint256"
        },
        {
          "internalType": "uint256",
          "name": "amountAMin",
          "type": "uint256"
        },
        {
          "internalType": "uint256",
          "name": "amountBMin",
          "type": "uint256"
        },
        {
          "internalType": "address",
          "name": "to",
          "type": "address"
        },
        {
          "internalType": "uint256",
          "name": "deadline",
          "type": "uint256"
        }
      ],
      "name": "removeLiquidity",
      "outputs": [
        {
          "internalType": "uint256",
          "name": "amountA",
          "type": "uint256"
        },
        {
          "internalType": "uint256",
          "name": "amountB",
          "type": "uint256"
        }
      ],
      "stateMutability": "nonpayable",
      "type": "function"
    },
    {
      "inputs": [
        {
          "internalType": "address",
          "name": "token",
          "type": "address"
        },
        {
          "internalType": "uint256",
          "name": "liquidity",
          "type": "uint256"
        },
        {
          "internalType": "uint256",
          "name": "amountTokenMin",
          "type": "uint256"
        },
        {
          "internalType": "uint256",
          "name": "amountVLXMin",
          "type": "uint256"
        },
        {
          "internalType": "address",
          "name": "to",
          "type": "address"
        },
        {
          "internalType": "uint256",
          "name": "deadline",
          "type": "uint256"
        }
      ],
      "name": "removeLiquidityVLX",
      "outputs": [
        {
          "internalType": "uint256",
          "name": "amountToken",
          "type": "uint256"
        },
        {
          "internalType": "uint256",
          "name": "amountVLX",
          "type": "uint256"
        }
      ],
      "stateMutability": "nonpayable",
      "type": "function"
    },
    {
      "inputs": [
        {
          "internalType": "address",
          "name": "tokenA",
          "type": "address"
        },
        {
          "internalType": "address",
          "name": "tokenB",
          "type": "address"
        },
        {
          "internalType": "uint256",
          "name": "liquidity",
          "type": "uint256"
        },
        {
          "internalType": "uint256",
          "name": "amountAMin",
          "type": "uint256"
        },
        {
          "internalType": "uint256",
          "name": "amountBMin",
          "type": "uint256"
        },
        {
          "internalType": "address",
          "name": "to",
          "type": "address"
        },
        {
          "internalType": "uint256",
          "name": "deadline",
          "type": "uint256"
        },
        {
          "internalType": "bool",
          "name": "approveMax",
          "type": "bool"
        },
        {
          "internalType": "uint8",
          "name": "v",
          "type": "uint8"
        },
        {
          "internalType": "bytes32",
          "name": "r",
          "type": "bytes32"
        },
        {
          "internalType": "bytes32",
          "name": "s",
          "type": "bytes32"
        }
      ],
      "name": "removeLiquidityWithPermit",
      "outputs": [
        {
          "internalType": "uint256",
          "name": "amountA",
          "type": "uint256"
        },
        {
          "internalType": "uint256",
          "name": "amountB",
          "type": "uint256"
        }
      ],
      "stateMutability": "nonpayable",
      "type": "function"
    },
    {
      "inputs": [
        {
          "internalType": "address",
          "name": "token",
          "type": "address"
        },
        {
          "internalType": "uint256",
          "name": "liquidity",
          "type": "uint256"
        },
        {
          "internalType": "uint256",
          "name": "amountTokenMin",
          "type": "uint256"
        },
        {
          "internalType": "uint256",
          "name": "amountVLXMin",
          "type": "uint256"
        },
        {
          "internalType": "address",
          "name": "to",
          "type": "address"
        },
        {
          "internalType": "uint256",
          "name": "deadline",
          "type": "uint256"
        },
        {
          "internalType": "bool",
          "name": "approveMax",
          "type": "bool"
        },
        {
          "internalType": "uint8",
          "name": "v",
          "type": "uint8"
        },
        {
          "internalType": "bytes32",
          "name": "r",
          "type": "bytes32"
        },
        {
          "internalType": "bytes32",
          "name": "s",
          "type": "bytes32"
        }
      ],
      "name": "removeLiquidityVLXWithPermit",
      "outputs": [
        {
          "internalType": "uint256",
          "name": "amountToken",
          "type": "uint256"
        },
        {
          "internalType": "uint256",
          "name": "amountVLX",
          "type": "uint256"
        }
      ],
      "stateMutability": "nonpayable",
      "type": "function"
    },
    {
      "inputs": [
        {
          "internalType": "address",
          "name": "token",
          "type": "address"
        },
        {
          "internalType": "uint256",
          "name": "liquidity",
          "type": "uint256"
        },
        {
          "internalType": "uint256",
          "name": "amountTokenMin",
          "type": "uint256"
        },
        {
          "internalType": "uint256",
          "name": "amountVLXMin",
          "type": "uint256"
        },
        {
          "internalType": "address",
          "name": "to",
          "type": "address"
        },
        {
          "internalType": "uint256",
          "name": "deadline",
          "type": "uint256"
        }
      ],
      "name": "removeLiquidityVLXSupportingFeeOnTransferTokens",
      "outputs": [
        {
          "internalType": "uint256",
          "name": "amountVLX",
          "type": "uint256"
        }
      ],
      "stateMutability": "nonpayable",
      "type": "function"
    },
    {
      "inputs": [
        {
          "internalType": "address",
          "name": "token",
          "type": "address"
        },
        {
          "internalType": "uint256",
          "name": "liquidity",
          "type": "uint256"
        },
        {
          "internalType": "uint256",
          "name": "amountTokenMin",
          "type": "uint256"
        },
        {
          "internalType": "uint256",
          "name": "amountVLXMin",
          "type": "uint256"
        },
        {
          "internalType": "address",
          "name": "to",
          "type": "address"
        },
        {
          "internalType": "uint256",
          "name": "deadline",
          "type": "uint256"
        },
        {
          "internalType": "bool",
          "name": "approveMax",
          "type": "bool"
        },
        {
          "internalType": "uint8",
          "name": "v",
          "type": "uint8"
        },
        {
          "internalType": "bytes32",
          "name": "r",
          "type": "bytes32"
        },
        {
          "internalType": "bytes32",
          "name": "s",
          "type": "bytes32"
        }
      ],
      "name": "removeLiquidityVLXWithPermitSupportingFeeOnTransferTokens",
      "outputs": [
        {
          "internalType": "uint256",
          "name": "amountVLX",
          "type": "uint256"
        }
      ],
      "stateMutability": "nonpayable",
      "type": "function"
    },
    {
      "inputs": [
        {
          "internalType": "uint256",
          "name": "amountIn",
          "type": "uint256"
        },
        {
          "internalType": "uint256",
          "name": "amountOutMin",
          "type": "uint256"
        },
        {
          "internalType": "address[]",
          "name": "path",
          "type": "address[]"
        },
        {
          "internalType": "address",
          "name": "to",
          "type": "address"
        },
        {
          "internalType": "uint256",
          "name": "deadline",
          "type": "uint256"
        }
      ],
      "name": "swapExactTokensForTokens",
      "outputs": [
        {
          "internalType": "uint256[]",
          "name": "amounts",
          "type": "uint256[]"
        }
      ],
      "stateMutability": "nonpayable",
      "type": "function"
    },
    {
      "inputs": [
        {
          "internalType": "uint256",
          "name": "amountOut",
          "type": "uint256"
        },
        {
          "internalType": "uint256",
          "name": "amountInMax",
          "type": "uint256"
        },
        {
          "internalType": "address[]",
          "name": "path",
          "type": "address[]"
        },
        {
          "internalType": "address",
          "name": "to",
          "type": "address"
        },
        {
          "internalType": "uint256",
          "name": "deadline",
          "type": "uint256"
        }
      ],
      "name": "swapTokensForExactTokens",
      "outputs": [
        {
          "internalType": "uint256[]",
          "name": "amounts",
          "type": "uint256[]"
        }
      ],
      "stateMutability": "nonpayable",
      "type": "function"
    },
    {
      "inputs": [
        {
          "internalType": "uint256",
          "name": "amountOutMin",
          "type": "uint256"
        },
        {
          "internalType": "address[]",
          "name": "path",
          "type": "address[]"
        },
        {
          "internalType": "address",
          "name": "to",
          "type": "address"
        },
        {
          "internalType": "uint256",
          "name": "deadline",
          "type": "uint256"
        }
      ],
      "name": "swapExactVLXForTokens",
      "outputs": [
        {
          "internalType": "uint256[]",
          "name": "amounts",
          "type": "uint256[]"
        }
      ],
      "stateMutability": "payable",
      "type": "function",
      "payable": true
    },
    {
      "inputs": [
        {
          "internalType": "uint256",
          "name": "amountOut",
          "type": "uint256"
        },
        {
          "internalType": "uint256",
          "name": "amountInMax",
          "type": "uint256"
        },
        {
          "internalType": "address[]",
          "name": "path",
          "type": "address[]"
        },
        {
          "internalType": "address",
          "name": "to",
          "type": "address"
        },
        {
          "internalType": "uint256",
          "name": "deadline",
          "type": "uint256"
        }
      ],
      "name": "swapTokensForExactVLX",
      "outputs": [
        {
          "internalType": "uint256[]",
          "name": "amounts",
          "type": "uint256[]"
        }
      ],
      "stateMutability": "nonpayable",
      "type": "function"
    },
    {
      "inputs": [
        {
          "internalType": "uint256",
          "name": "amountIn",
          "type": "uint256"
        },
        {
          "internalType": "uint256",
          "name": "amountOutMin",
          "type": "uint256"
        },
        {
          "internalType": "address[]",
          "name": "path",
          "type": "address[]"
        },
        {
          "internalType": "address",
          "name": "to",
          "type": "address"
        },
        {
          "internalType": "uint256",
          "name": "deadline",
          "type": "uint256"
        }
      ],
      "name": "swapExactTokensForVLX",
      "outputs": [
        {
          "internalType": "uint256[]",
          "name": "amounts",
          "type": "uint256[]"
        }
      ],
      "stateMutability": "nonpayable",
      "type": "function"
    },
    {
      "inputs": [
        {
          "internalType": "uint256",
          "name": "amountOut",
          "type": "uint256"
        },
        {
          "internalType": "address[]",
          "name": "path",
          "type": "address[]"
        },
        {
          "internalType": "address",
          "name": "to",
          "type": "address"
        },
        {
          "internalType": "uint256",
          "name": "deadline",
          "type": "uint256"
        }
      ],
      "name": "swapVLXForExactTokens",
      "outputs": [
        {
          "internalType": "uint256[]",
          "name": "amounts",
          "type": "uint256[]"
        }
      ],
      "stateMutability": "payable",
      "type": "function",
      "payable": true
    },
    {
      "inputs": [
        {
          "internalType": "uint256",
          "name": "amountIn",
          "type": "uint256"
        },
        {
          "internalType": "uint256",
          "name": "amountOutMin",
          "type": "uint256"
        },
        {
          "internalType": "address[]",
          "name": "path",
          "type": "address[]"
        },
        {
          "internalType": "address",
          "name": "to",
          "type": "address"
        },
        {
          "internalType": "uint256",
          "name": "deadline",
          "type": "uint256"
        }
      ],
      "name": "swapExactTokensForTokensSupportingFeeOnTransferTokens",
      "outputs": [],
      "stateMutability": "nonpayable",
      "type": "function"
    },
    {
      "inputs": [
        {
          "internalType": "uint256",
          "name": "amountOutMin",
          "type": "uint256"
        },
        {
          "internalType": "address[]",
          "name": "path",
          "type": "address[]"
        },
        {
          "internalType": "address",
          "name": "to",
          "type": "address"
        },
        {
          "internalType": "uint256",
          "name": "deadline",
          "type": "uint256"
        }
      ],
      "name": "swapExactVLXForTokensSupportingFeeOnTransferTokens",
      "outputs": [],
      "stateMutability": "payable",
      "type": "function",
      "payable": true
    },
    {
      "inputs": [
        {
          "internalType": "uint256",
          "name": "amountIn",
          "type": "uint256"
        },
        {
          "internalType": "uint256",
          "name": "amountOutMin",
          "type": "uint256"
        },
        {
          "internalType": "address[]",
          "name": "path",
          "type": "address[]"
        },
        {
          "internalType": "address",
          "name": "to",
          "type": "address"
        },
        {
          "internalType": "uint256",
          "name": "deadline",
          "type": "uint256"
        }
      ],
      "name": "swapExactTokensForVLXSupportingFeeOnTransferTokens",
      "outputs": [],
      "stateMutability": "nonpayable",
      "type": "function"
    },
    {
      "inputs": [
        {
          "internalType": "uint256",
          "name": "amountA",
          "type": "uint256"
        },
        {
          "internalType": "uint256",
          "name": "reserveA",
          "type": "uint256"
        },
        {
          "internalType": "uint256",
          "name": "reserveB",
          "type": "uint256"
        }
      ],
      "name": "quote",
      "outputs": [
        {
          "internalType": "uint256",
          "name": "amountB",
          "type": "uint256"
        }
      ],
      "stateMutability": "pure",
      "type": "function",
      "constant": true
    },
    {
      "inputs": [
        {
          "internalType": "uint256",
          "name": "amountIn",
          "type": "uint256"
        },
        {
          "internalType": "uint256",
          "name": "reserveIn",
          "type": "uint256"
        },
        {
          "internalType": "uint256",
          "name": "reserveOut",
          "type": "uint256"
        }
      ],
      "name": "getAmountOut",
      "outputs": [
        {
          "internalType": "uint256",
          "name": "amountOut",
          "type": "uint256"
        }
      ],
      "stateMutability": "pure",
      "type": "function",
      "constant": true
    },
    {
      "inputs": [
        {
          "internalType": "uint256",
          "name": "amountOut",
          "type": "uint256"
        },
        {
          "internalType": "uint256",
          "name": "reserveIn",
          "type": "uint256"
        },
        {
          "internalType": "uint256",
          "name": "reserveOut",
          "type": "uint256"
        }
      ],
      "name": "getAmountIn",
      "outputs": [
        {
          "internalType": "uint256",
          "name": "amountIn",
          "type": "uint256"
        }
      ],
      "stateMutability": "pure",
      "type": "function",
      "constant": true
    },
    {
      "inputs": [
        {
          "internalType": "uint256",
          "name": "amountIn",
          "type": "uint256"
        },
        {
          "internalType": "address[]",
          "name": "path",
          "type": "address[]"
        }
      ],
      "name": "getAmountsOut",
      "outputs": [
        {
          "internalType": "uint256[]",
          "name": "amounts",
          "type": "uint256[]"
        }
      ],
      "stateMutability": "view",
      "type": "function",
      "constant": true
    },
    {
      "inputs": [
        {
          "internalType": "uint256",
          "name": "amountOut",
          "type": "uint256"
        },
        {
          "internalType": "address[]",
          "name": "path",
          "type": "address[]"
        }
      ],
      "name": "getAmountsIn",
      "outputs": [
        {
          "internalType": "uint256[]",
          "name": "amounts",
          "type": "uint256[]"
        }
      ],
      "stateMutability": "view",
      "type": "function",
      "constant": true
    }
  ],
  "bytecode": "0x60c060405234801561001057600080fd5b5060405162004937380380620049378339818101604052604081101561003557600080fd5b5080516020909101516001600160601b0319606092831b8116608052911b1660a05260805160601c60a05160601c6147b2620001856000398061019f5280610d535280610eab5280610f3352806110f9528061124d5280611303528061151c528061173752806119745280611a845280611f0352806120a252806121f7528061227f52806126b752806126f252806128005280612856528061288a52806128fe5280612aab5280612b5a5280612c5c5280612d035280612d775280612fb6525080610df85280610f6552806111ba528061139a52806113d352806115bc5280611693528061184a52806119525280611a625280611dfc5280611fa3528061214752806122b15280612452528061278652806128345280612be75280612da9528061304452806134e05280613523528061384052806139c652806141f852806142bf528061433f52506147b26000f3fe60806040526004361061018f5760003560e01c80639db2bb19116100d6578063cf0cb3561161007f578063d1f8e9e611610059578063d1f8e9e614610bf0578063d63c20c714610c76578063e8e3370014610c8b576101c8565b8063cf0cb35614610a82578063d05d1f5514610ae6578063d06ca61f14610b39576101c8565b8063baa2abde116100b0578063baa2abde146109a1578063bd774bf6146109fe578063c45a015514610a51576101c8565b80639db2bb191461084d578063a192f974146108e5578063ad615dec1461096b576101c8565b806338ed1739116101385780635c11d795116101125780635c11d795146106e757806385f8c2591461077f5780638803dbee146107b5576101c8565b806338ed1739146105695780633a364e09146106015780635491707b14610674576101c8565b80631f00ca74116101695780631f00ca74146103835780632195995c1461043a57806337c40554146104d1576101c8565b8063054d50d4146101cd57806305e84b811461021557806307a55fb0146102eb576101c8565b366101c857336001600160a01b037f000000000000000000000000000000000000000000000000000000000000000016146101c657fe5b005b600080fd5b3480156101d957600080fd5b50610203600480360360608110156101f057600080fd5b5080359060208101359060400135610ced565b60408051918252519081900360200190f35b61029b6004803603608081101561022b57600080fd5b8135919081019060408101602082013564010000000081111561024d57600080fd5b82018360208201111561025f57600080fd5b8035906020019184602083028401116401000000008311171561028157600080fd5b91935091506001600160a01b038135169060200135610d02565b60408051602080825283518183015283519192839290830191858101910280838360005b838110156102d75781810151838201526020016102bf565b505050509050019250505060405180910390f35b3480156102f757600080fd5b506101c6600480360360a081101561030e57600080fd5b81359160208101359181019060608101604082013564010000000081111561033557600080fd5b82018360208201111561034757600080fd5b8035906020019184602083028401116401000000008311171561036957600080fd5b91935091506001600160a01b0381351690602001356110a2565b34801561038f57600080fd5b5061029b600480360360408110156103a657600080fd5b813591908101906040810160208201356401000000008111156103c857600080fd5b8201836020820111156103da57600080fd5b803590602001918460208302840111640100000000831117156103fc57600080fd5b919080806020026020016040519081016040528093929190818152602001838360200280828437600092019190915250929550611393945050505050565b34801561044657600080fd5b506104b8600480360361016081101561045e57600080fd5b506001600160a01b038135811691602081013582169160408201359160608101359160808201359160a08101359091169060c08101359060e081013515159060ff61010082013516906101208101359061014001356113c9565b6040805192835260208301919091528051918290030190f35b3480156104dd57600080fd5b5061029b600480360360a08110156104f457600080fd5b81359160208101359181019060608101604082013564010000000081111561051b57600080fd5b82018360208201111561052d57600080fd5b8035906020019184602083028401116401000000008311171561054f57600080fd5b91935091506001600160a01b0381351690602001356114c3565b34801561057557600080fd5b5061029b600480360360a081101561058c57600080fd5b8135916020810135918101906060810160408201356401000000008111156105b357600080fd5b8201836020820111156105c557600080fd5b803590602001918460208302840111640100000000831117156105e757600080fd5b91935091506001600160a01b0381351690602001356117f6565b34801561060d57600080fd5b50610203600480360361014081101561062557600080fd5b506001600160a01b0381358116916020810135916040820135916060810135916080820135169060a08101359060c081013515159060ff60e0820135169061010081013590610120013561194a565b34801561068057600080fd5b506104b8600480360361014081101561069857600080fd5b506001600160a01b0381358116916020810135916040820135916060810135916080820135169060a08101359060c081013515159060ff60e08201351690610100810135906101200135611a58565b3480156106f357600080fd5b506101c6600480360360a081101561070a57600080fd5b81359160208101359181019060608101604082013564010000000081111561073157600080fd5b82018360208201111561074357600080fd5b8035906020019184602083028401116401000000008311171561076557600080fd5b91935091506001600160a01b038135169060200135611b6c565b34801561078b57600080fd5b50610203600480360360608110156107a257600080fd5b5080359060208101359060400135611d9b565b3480156107c157600080fd5b5061029b600480360360a08110156107d857600080fd5b8135916020810135918101906060810160408201356401000000008111156107ff57600080fd5b82018360208201111561081157600080fd5b8035906020019184602083028401116401000000008311171561083357600080fd5b91935091506001600160a01b038135169060200135611da8565b34801561085957600080fd5b5061029b600480360360a081101561087057600080fd5b81359160208101359181019060608101604082013564010000000081111561089757600080fd5b8201836020820111156108a957600080fd5b803590602001918460208302840111640100000000831117156108cb57600080fd5b91935091506001600160a01b038135169060200135611eaa565b61029b600480360360808110156108fb57600080fd5b8135919081019060408101602082013564010000000081111561091d57600080fd5b82018360208201111561092f57600080fd5b8035906020019184602083028401116401000000008311171561095157600080fd5b91935091506001600160a01b038135169060200135612051565b34801561097757600080fd5b506102036004803603606081101561098e57600080fd5b50803590602081013590604001356123ee565b3480156109ad57600080fd5b506104b8600480360360e08110156109c457600080fd5b506001600160a01b038135811691602081013582169160408201359160608101359160808201359160a08101359091169060c001356123fb565b348015610a0a57600080fd5b506104b8600480360360c0811015610a2157600080fd5b506001600160a01b0381358116916020810135916040820135916060810135916080820135169060a00135612661565b348015610a5d57600080fd5b50610a66612784565b604080516001600160a01b039092168252519081900360200190f35b610ac8600480360360c0811015610a9857600080fd5b506001600160a01b0381358116916020810135916040820135916060810135916080820135169060a001356127a8565b60408051938452602084019290925282820152519081900360600190f35b348015610af257600080fd5b50610203600480360360c0811015610b0957600080fd5b506001600160a01b0381358116916020810135916040820135916060810135916080820135169060a00135612a56565b348015610b4557600080fd5b5061029b60048036036040811015610b5c57600080fd5b81359190810190604081016020820135640100000000811115610b7e57600080fd5b820183602082011115610b9057600080fd5b80359060200191846020830284011164010000000083111715610bb257600080fd5b919080806020026020016040519081016040528093929190818152602001838360200280828437600092019190915250929550612be0945050505050565b6101c660048036036080811015610c0657600080fd5b81359190810190604081016020820135640100000000811115610c2857600080fd5b820183602082011115610c3a57600080fd5b80359060200191846020830284011164010000000083111715610c5c57600080fd5b91935091506001600160a01b038135169060200135612c0d565b348015610c8257600080fd5b50610a66612fb4565b348015610c9757600080fd5b50610ac86004803603610100811015610caf57600080fd5b506001600160a01b038135811691602081013582169160408201359160608101359160808201359160a08101359160c0820135169060e00135612fd8565b6000610cfa84848461311d565b949350505050565b60608142811015610d51576040805162461bcd60e51b815260206004820152601460248201527315d859de5d549bdd5d195c8e881156141254915160621b604482015290519081900360640190fd5b7f00000000000000000000000000000000000000000000000000000000000000006001600160a01b031686866000818110610d8857fe5b905060200201356001600160a01b03166001600160a01b031614610df3576040805162461bcd60e51b815260206004820152601960248201527f5761677975526f757465723a20494e56414c49445f5041544800000000000000604482015290519081900360640190fd5b610e517f00000000000000000000000000000000000000000000000000000000000000003488888080602002602001604051908101604052809392919081815260200183836020028082843760009201919091525061320d92505050565b91508682600184510381518110610e6457fe5b60200260200101511015610ea95760405162461bcd60e51b81526004018080602001828103825260278152602001806146166027913960400191505060405180910390fd5b7f00000000000000000000000000000000000000000000000000000000000000006001600160a01b031663d0e30db083600081518110610ee557fe5b60200260200101516040518263ffffffff1660e01b81526004016000604051808303818588803b158015610f1857600080fd5b505af1158015610f2c573d6000803e3d6000fd5b50505050507f00000000000000000000000000000000000000000000000000000000000000006001600160a01b031663a9059cbb610fc37f000000000000000000000000000000000000000000000000000000000000000089896000818110610f9157fe5b905060200201356001600160a01b03168a8a6001818110610fae57fe5b905060200201356001600160a01b0316613359565b84600081518110610fd057fe5b60200260200101516040518363ffffffff1660e01b815260040180836001600160a01b03166001600160a01b0316815260200182815260200192505050602060405180830381600087803b15801561102757600080fd5b505af115801561103b573d6000803e3d6000fd5b505050506040513d602081101561105157600080fd5b505161105957fe5b61109882878780806020026020016040519081016040528093929190818152602001838360200280828437600092019190915250899250613431915050565b5095945050505050565b80428110156110ef576040805162461bcd60e51b815260206004820152601460248201527315d859de5d549bdd5d195c8e881156141254915160621b604482015290519081900360640190fd5b6001600160a01b037f0000000000000000000000000000000000000000000000000000000000000000168585600019810181811061112957fe5b905060200201356001600160a01b03166001600160a01b031614611194576040805162461bcd60e51b815260206004820152601960248201527f5761677975526f757465723a20494e56414c49445f5041544800000000000000604482015290519081900360640190fd5b6111ec858560008181106111a457fe5b905060200201356001600160a01b0316336111e67f000000000000000000000000000000000000000000000000000000000000000089896000818110610f9157fe5b8a613677565b61122a8585808060200260200160405190810160405280939291908181526020018383602002808284376000920191909152503092506137e9915050565b604080516370a0823160e01b815230600482015290516000916001600160a01b037f000000000000000000000000000000000000000000000000000000000000000016916370a0823191602480820192602092909190829003018186803b15801561129457600080fd5b505afa1580156112a8573d6000803e3d6000fd5b505050506040513d60208110156112be57600080fd5b50519050868110156113015760405162461bcd60e51b81526004018080602001828103825260278152602001806146166027913960400191505060405180910390fd5b7f00000000000000000000000000000000000000000000000000000000000000006001600160a01b0316632e1a7d4d826040518263ffffffff1660e01b815260040180828152602001915050600060405180830381600087803b15801561136757600080fd5b505af115801561137b573d6000803e3d6000fd5b505050506113898482613b19565b5050505050505050565b60606113c07f00000000000000000000000000000000000000000000000000000000000000008484613c0c565b90505b92915050565b60008060006113f97f00000000000000000000000000000000000000000000000000000000000000008f8f613359565b9050600087611408578c61140c565b6000195b6040805163d505accf60e01b815233600482015230602482015260448101839052606481018c905260ff8a16608482015260a4810189905260c4810188905290519192506001600160a01b0384169163d505accf9160e48082019260009290919082900301818387803b15801561148257600080fd5b505af1158015611496573d6000803e3d6000fd5b505050506114a98f8f8f8f8f8f8f6123fb565b809450819550505050509b509b9950505050505050505050565b60608142811015611512576040805162461bcd60e51b815260206004820152601460248201527315d859de5d549bdd5d195c8e881156141254915160621b604482015290519081900360640190fd5b6001600160a01b037f0000000000000000000000000000000000000000000000000000000000000000168686600019810181811061154c57fe5b905060200201356001600160a01b03166001600160a01b0316146115b7576040805162461bcd60e51b815260206004820152601960248201527f5761677975526f757465723a20494e56414c49445f5041544800000000000000604482015290519081900360640190fd5b6116157f00000000000000000000000000000000000000000000000000000000000000008988888080602002602001604051908101604052809392919081815260200183836020028082843760009201919091525061320d92505050565b9150868260018451038151811061162857fe5b6020026020010151101561166d5760405162461bcd60e51b81526004018080602001828103825260278152602001806146166027913960400191505060405180910390fd5b6116f68686600081811061167d57fe5b905060200201356001600160a01b0316336116dc7f00000000000000000000000000000000000000000000000000000000000000008a8a60008181106116bf57fe5b905060200201356001600160a01b03168b8b6001818110610fae57fe5b856000815181106116e957fe5b6020026020010151613677565b61173582878780806020026020016040519081016040528093929190818152602001838360200280828437600092019190915250309250613431915050565b7f00000000000000000000000000000000000000000000000000000000000000006001600160a01b0316632e1a7d4d8360018551038151811061177457fe5b60200260200101516040518263ffffffff1660e01b815260040180828152602001915050600060405180830381600087803b1580156117b257600080fd5b505af11580156117c6573d6000803e3d6000fd5b505050506117eb84836001855103815181106117de57fe5b6020026020010151613b19565b509695505050505050565b60608142811015611845576040805162461bcd60e51b815260206004820152601460248201527315d859de5d549bdd5d195c8e881156141254915160621b604482015290519081900360640190fd5b6118a37f00000000000000000000000000000000000000000000000000000000000000008988888080602002602001604051908101604052809392919081815260200183836020028082843760009201919091525061320d92505050565b915086826001845103815181106118b657fe5b602002602001015110156118fb5760405162461bcd60e51b81526004018080602001828103825260278152602001806146166027913960400191505060405180910390fd5b61190b8686600081811061167d57fe5b6117eb82878780806020026020016040519081016040528093929190818152602001838360200280828437600092019190915250899250613431915050565b6000806119987f00000000000000000000000000000000000000000000000000000000000000008d7f0000000000000000000000000000000000000000000000000000000000000000613359565b90506000866119a7578b6119ab565b6000195b6040805163d505accf60e01b815233600482015230602482015260448101839052606481018b905260ff8916608482015260a4810188905260c4810187905290519192506001600160a01b0384169163d505accf9160e48082019260009290919082900301818387803b158015611a2157600080fd5b505af1158015611a35573d6000803e3d6000fd5b50505050611a478d8d8d8d8d8d612a56565b9d9c50505050505050505050505050565b6000806000611aa87f00000000000000000000000000000000000000000000000000000000000000008e7f0000000000000000000000000000000000000000000000000000000000000000613359565b9050600087611ab7578c611abb565b6000195b6040805163d505accf60e01b815233600482015230602482015260448101839052606481018c905260ff8a16608482015260a4810189905260c4810188905290519192506001600160a01b0384169163d505accf9160e48082019260009290919082900301818387803b158015611b3157600080fd5b505af1158015611b45573d6000803e3d6000fd5b50505050611b578e8e8e8e8e8e612661565b909f909e509c50505050505050505050505050565b8042811015611bb9576040805162461bcd60e51b815260206004820152601460248201527315d859de5d549bdd5d195c8e881156141254915160621b604482015290519081900360640190fd5b611bc9858560008181106111a457fe5b600085856000198101818110611bdb57fe5b905060200201356001600160a01b03166001600160a01b03166370a08231856040518263ffffffff1660e01b815260040180826001600160a01b03166001600160a01b0316815260200191505060206040518083038186803b158015611c4057600080fd5b505afa158015611c54573d6000803e3d6000fd5b505050506040513d6020811015611c6a57600080fd5b50516040805160208881028281018201909352888252929350611cac9290918991899182918501908490808284376000920191909152508892506137e9915050565b86611d5e8288886000198101818110611cc157fe5b905060200201356001600160a01b03166001600160a01b03166370a08231886040518263ffffffff1660e01b815260040180826001600160a01b03166001600160a01b0316815260200191505060206040518083038186803b158015611d2657600080fd5b505afa158015611d3a573d6000803e3d6000fd5b505050506040513d6020811015611d5057600080fd5b50519063ffffffff613d4416565b10156113895760405162461bcd60e51b81526004018080602001828103825260278152602001806146166027913960400191505060405180910390fd5b6000610cfa848484613d9c565b60608142811015611df7576040805162461bcd60e51b815260206004820152601460248201527315d859de5d549bdd5d195c8e881156141254915160621b604482015290519081900360640190fd5b611e557f000000000000000000000000000000000000000000000000000000000000000089888880806020026020016040519081016040528093929190818152602001838360200280828437600092019190915250613c0c92505050565b91508682600081518110611e6557fe5b602002602001015111156118fb5760405162461bcd60e51b81526004018080602001828103825260238152602001806146866023913960400191505060405180910390fd5b60608142811015611ef9576040805162461bcd60e51b815260206004820152601460248201527315d859de5d549bdd5d195c8e881156141254915160621b604482015290519081900360640190fd5b6001600160a01b037f00000000000000000000000000000000000000000000000000000000000000001686866000198101818110611f3357fe5b905060200201356001600160a01b03166001600160a01b031614611f9e576040805162461bcd60e51b815260206004820152601960248201527f5761677975526f757465723a20494e56414c49445f5041544800000000000000604482015290519081900360640190fd5b611ffc7f000000000000000000000000000000000000000000000000000000000000000089888880806020026020016040519081016040528093929190818152602001838360200280828437600092019190915250613c0c92505050565b9150868260008151811061200c57fe5b6020026020010151111561166d5760405162461bcd60e51b81526004018080602001828103825260238152602001806146866023913960400191505060405180910390fd5b606081428110156120a0576040805162461bcd60e51b815260206004820152601460248201527315d859de5d549bdd5d195c8e881156141254915160621b604482015290519081900360640190fd5b7f00000000000000000000000000000000000000000000000000000000000000006001600160a01b0316868660008181106120d757fe5b905060200201356001600160a01b03166001600160a01b031614612142576040805162461bcd60e51b815260206004820152601960248201527f5761677975526f757465723a20494e56414c49445f5041544800000000000000604482015290519081900360640190fd5b6121a07f000000000000000000000000000000000000000000000000000000000000000088888880806020026020016040519081016040528093929190818152602001838360200280828437600092019190915250613c0c92505050565b915034826000815181106121b057fe5b602002602001015111156121f55760405162461bcd60e51b81526004018080602001828103825260238152602001806146866023913960400191505060405180910390fd5b7f00000000000000000000000000000000000000000000000000000000000000006001600160a01b031663d0e30db08360008151811061223157fe5b60200260200101516040518263ffffffff1660e01b81526004016000604051808303818588803b15801561226457600080fd5b505af1158015612278573d6000803e3d6000fd5b50505050507f00000000000000000000000000000000000000000000000000000000000000006001600160a01b031663a9059cbb6122dd7f000000000000000000000000000000000000000000000000000000000000000089896000818110610f9157fe5b846000815181106122ea57fe5b60200260200101516040518363ffffffff1660e01b815260040180836001600160a01b03166001600160a01b0316815260200182815260200192505050602060405180830381600087803b15801561234157600080fd5b505af1158015612355573d6000803e3d6000fd5b505050506040513d602081101561236b57600080fd5b505161237357fe5b6123b282878780806020026020016040519081016040528093929190818152602001838360200280828437600092019190915250899250613431915050565b816000815181106123bf57fe5b60200260200101513411156110985761109833836000815181106123df57fe5b60200260200101513403613b19565b6000610cfa848484613e8c565b600080824281101561244b576040805162461bcd60e51b815260206004820152601460248201527315d859de5d549bdd5d195c8e881156141254915160621b604482015290519081900360640190fd5b60006124787f00000000000000000000000000000000000000000000000000000000000000008c8c613359565b604080516323b872dd60e01b81523360048201526001600160a01b03831660248201819052604482018d9052915192935090916323b872dd916064808201926020929091908290030181600087803b1580156124d357600080fd5b505af11580156124e7573d6000803e3d6000fd5b505050506040513d60208110156124fd57600080fd5b5050604080517f89afcb440000000000000000000000000000000000000000000000000000000081526001600160a01b03888116600483015282516000938493928616926389afcb44926024808301939282900301818787803b15801561256357600080fd5b505af1158015612577573d6000803e3d6000fd5b505050506040513d604081101561258d57600080fd5b508051602090910151909250905060006125a78e8e613f38565b509050806001600160a01b03168e6001600160a01b0316146125ca5781836125cd565b82825b90975095508a8710156126115760405162461bcd60e51b81526004018080602001828103825260228152602001806146a96022913960400191505060405180910390fd5b898610156126505760405162461bcd60e51b81526004018080602001828103825260228152602001806146ef6022913960400191505060405180910390fd5b505050505097509795505050505050565b60008082428110156126b1576040805162461bcd60e51b815260206004820152601460248201527315d859de5d549bdd5d195c8e881156141254915160621b604482015290519081900360640190fd5b6126e0897f00000000000000000000000000000000000000000000000000000000000000008a8a8a308a6123fb565b90935091506126f0898685614016565b7f00000000000000000000000000000000000000000000000000000000000000006001600160a01b0316632e1a7d4d836040518263ffffffff1660e01b815260040180828152602001915050600060405180830381600087803b15801561275657600080fd5b505af115801561276a573d6000803e3d6000fd5b505050506127788583613b19565b50965096945050505050565b7f000000000000000000000000000000000000000000000000000000000000000081565b600080600083428110156127fa576040805162461bcd60e51b815260206004820152601460248201527315d859de5d549bdd5d195c8e881156141254915160621b604482015290519081900360640190fd5b6128288a7f00000000000000000000000000000000000000000000000000000000000000008b348c8c6141ae565b9094509250600061287a7f00000000000000000000000000000000000000000000000000000000000000008c7f0000000000000000000000000000000000000000000000000000000000000000613359565b90506128888b338388613677565b7f00000000000000000000000000000000000000000000000000000000000000006001600160a01b031663d0e30db0856040518263ffffffff1660e01b81526004016000604051808303818588803b1580156128e357600080fd5b505af11580156128f7573d6000803e3d6000fd5b50505050507f00000000000000000000000000000000000000000000000000000000000000006001600160a01b031663a9059cbb82866040518363ffffffff1660e01b815260040180836001600160a01b03166001600160a01b0316815260200182815260200192505050602060405180830381600087803b15801561297c57600080fd5b505af1158015612990573d6000803e3d6000fd5b505050506040513d60208110156129a657600080fd5b50516129ae57fe5b806001600160a01b0316636a627842886040518263ffffffff1660e01b815260040180826001600160a01b03166001600160a01b03168152602001915050602060405180830381600087803b158015612a0657600080fd5b505af1158015612a1a573d6000803e3d6000fd5b505050506040513d6020811015612a3057600080fd5b5051925034841015612a4857612a4833853403613b19565b505096509650969350505050565b60008142811015612aa5576040805162461bcd60e51b815260206004820152601460248201527315d859de5d549bdd5d195c8e881156141254915160621b604482015290519081900360640190fd5b612ad4887f000000000000000000000000000000000000000000000000000000000000000089898930896123fb565b604080516370a0823160e01b81523060048201529051919450612b5892508a9187916001600160a01b038416916370a0823191602480820192602092909190829003018186803b158015612b2757600080fd5b505afa158015612b3b573d6000803e3d6000fd5b505050506040513d6020811015612b5157600080fd5b5051614016565b7f00000000000000000000000000000000000000000000000000000000000000006001600160a01b0316632e1a7d4d836040518263ffffffff1660e01b815260040180828152602001915050600060405180830381600087803b158015612bbe57600080fd5b505af1158015612bd2573d6000803e3d6000fd5b505050506117eb8483613b19565b60606113c07f0000000000000000000000000000000000000000000000000000000000000000848461320d565b8042811015612c5a576040805162461bcd60e51b815260206004820152601460248201527315d859de5d549bdd5d195c8e881156141254915160621b604482015290519081900360640190fd5b7f00000000000000000000000000000000000000000000000000000000000000006001600160a01b031685856000818110612c9157fe5b905060200201356001600160a01b03166001600160a01b031614612cfc576040805162461bcd60e51b815260206004820152601960248201527f5761677975526f757465723a20494e56414c49445f5041544800000000000000604482015290519081900360640190fd5b60003490507f00000000000000000000000000000000000000000000000000000000000000006001600160a01b031663d0e30db0826040518263ffffffff1660e01b81526004016000604051808303818588803b158015612d5c57600080fd5b505af1158015612d70573d6000803e3d6000fd5b50505050507f00000000000000000000000000000000000000000000000000000000000000006001600160a01b031663a9059cbb612dd57f000000000000000000000000000000000000000000000000000000000000000089896000818110610f9157fe5b836040518363ffffffff1660e01b815260040180836001600160a01b03166001600160a01b0316815260200182815260200192505050602060405180830381600087803b158015612e2557600080fd5b505af1158015612e39573d6000803e3d6000fd5b505050506040513d6020811015612e4f57600080fd5b5051612e5757fe5b600086866000198101818110612e6957fe5b905060200201356001600160a01b03166001600160a01b03166370a08231866040518263ffffffff1660e01b815260040180826001600160a01b03166001600160a01b0316815260200191505060206040518083038186803b158015612ece57600080fd5b505afa158015612ee2573d6000803e3d6000fd5b505050506040513d6020811015612ef857600080fd5b50516040805160208981028281018201909352898252929350612f3a9290918a918a9182918501908490808284376000920191909152508992506137e9915050565b87611d5e8289896000198101818110612f4f57fe5b905060200201356001600160a01b03166001600160a01b03166370a08231896040518263ffffffff1660e01b815260040180826001600160a01b03166001600160a01b0316815260200191505060206040518083038186803b158015611d2657600080fd5b7f000000000000000000000000000000000000000000000000000000000000000081565b6000806000834281101561302a576040805162461bcd60e51b815260206004820152601460248201527315d859de5d549bdd5d195c8e881156141254915160621b604482015290519081900360640190fd5b6130388c8c8c8c8c8c6141ae565b9094509250600061306a7f00000000000000000000000000000000000000000000000000000000000000008e8e613359565b90506130788d338388613677565b6130848c338387613677565b806001600160a01b0316636a627842886040518263ffffffff1660e01b815260040180826001600160a01b03166001600160a01b03168152602001915050602060405180830381600087803b1580156130dc57600080fd5b505af11580156130f0573d6000803e3d6000fd5b505050506040513d602081101561310657600080fd5b5051949d939c50939a509198505050505050505050565b600080841161315d5760405162461bcd60e51b81526004018080602001828103825260278152602001806147566027913960400191505060405180910390fd5b60008311801561316d5750600082115b6131a85760405162461bcd60e51b81526004018080602001828103825260248152602001806146cb6024913960400191505060405180910390fd5b60006131bc856103e663ffffffff61445416565b905060006131d0828563ffffffff61445416565b905060006131f6836131ea886103e863ffffffff61445416565b9063ffffffff6144c016565b905080828161320157fe5b04979650505050505050565b6060600282511015613266576040805162461bcd60e51b815260206004820152601a60248201527f57616779754c6962726172793a20494e56414c49445f50415448000000000000604482015290519081900360640190fd5b815167ffffffffffffffff8111801561327e57600080fd5b506040519080825280602002602001820160405280156132a8578160200160208202803683370190505b50905082816000815181106132b957fe5b60200260200101818152505060005b60018351038110156133515760008061330b878685815181106132e757fe5b60200260200101518786600101815181106132fe57fe5b6020026020010151614518565b9150915061332d84848151811061331e57fe5b6020026020010151838361311d565b84846001018151811061333c57fe5b602090810291909101015250506001016132c8565b509392505050565b60008060006133688585613f38565b604080516bffffffffffffffffffffffff19606094851b811660208084019190915293851b81166034830152825160288184030181526048830184528051908501207fff0000000000000000000000000000000000000000000000000000000000000060688401529a90941b9093166069840152607d8301989098527f6a70167b173fb38c22905ad17010927e677c7f03f2c8a82ee3ca941dd9d9315c609d808401919091528851808403909101815260bd909201909752805196019590952095945050505050565b60005b60018351038110156136715760008084838151811061344f57fe5b602002602001015185846001018151811061346657fe5b602002602001015191509150600061347e8383613f38565b509050600087856001018151811061349257fe5b60200260200101519050600080836001600160a01b0316866001600160a01b0316146134c0578260006134c4565b6000835b91509150600060028a510388106134db578861351c565b61351c7f0000000000000000000000000000000000000000000000000000000000000000878c8b6002018151811061350f57fe5b6020026020010151613359565b90506135497f00000000000000000000000000000000000000000000000000000000000000008888613359565b6001600160a01b031663022c0d9f84848460006040519080825280601f01601f191660200182016040528015613586576020820181803683370190505b506040518563ffffffff1660e01b815260040180858152602001848152602001836001600160a01b03166001600160a01b0316815260200180602001828103825283818151815260200191508051906020019080838360005b838110156135f75781810151838201526020016135df565b50505050905090810190601f1680156136245780820380516001836020036101000a031916815260200191505b5095505050505050600060405180830381600087803b15801561364657600080fd5b505af115801561365a573d6000803e3d6000fd5b505060019099019850613434975050505050505050565b50505050565b604080516001600160a01b0385811660248301528481166044830152606480830185905283518084039091018152608490920183526020820180517bffffffffffffffffffffffffffffffffffffffffffffffffffffffff166323b872dd60e01b17815292518251600094606094938a169392918291908083835b602083106137115780518252601f1990920191602091820191016136f2565b6001836020036101000a0380198251168184511680821785525050505050509050019150506000604051808303816000865af19150503d8060008114613773576040519150601f19603f3d011682016040523d82523d6000602084013e613778565b606091505b50915091508180156137a65750805115806137a657508080602001905160208110156137a357600080fd5b50515b6137e15760405162461bcd60e51b81526004018080602001828103825260248152602001806147326024913960400191505060405180910390fd5b505050505050565b60005b6001835103811015613b145760008084838151811061380757fe5b602002602001015185846001018151811061381e57fe5b60200260200101519150915060006138368383613f38565b50905060006138667f00000000000000000000000000000000000000000000000000000000000000008585613359565b9050600080600080846001600160a01b0316630902f1ac6040518163ffffffff1660e01b815260040160606040518083038186803b1580156138a757600080fd5b505afa1580156138bb573d6000803e3d6000fd5b505050506040513d60608110156138d157600080fd5b5080516020909101516dffffffffffffffffffffffffffff91821693501690506000806001600160a01b038a81169089161461390e578284613911565b83835b9150915061396f828b6001600160a01b03166370a082318a6040518263ffffffff1660e01b815260040180826001600160a01b03166001600160a01b0316815260200191505060206040518083038186803b158015611d2657600080fd5b955061397c86838361311d565b945050505050600080856001600160a01b0316886001600160a01b0316146139a6578260006139aa565b6000835b91509150600060028c51038a106139c1578a6139f5565b6139f57f0000000000000000000000000000000000000000000000000000000000000000898e8d6002018151811061350f57fe5b60408051600080825260208201928390527f022c0d9f00000000000000000000000000000000000000000000000000000000835260248201878152604483018790526001600160a01b038086166064850152608060848501908152845160a48601819052969750908c169563022c0d9f958a958a958a9591949193919260c486019290918190849084905b83811015613a98578181015183820152602001613a80565b50505050905090810190601f168015613ac55780820380516001836020036101000a031916815260200191505b5095505050505050600060405180830381600087803b158015613ae757600080fd5b505af1158015613afb573d6000803e3d6000fd5b50506001909b019a506137ec9950505050505050505050565b505050565b604080516000808252602082019092526001600160a01b0384169083906040518082805190602001908083835b60208310613b655780518252601f199092019160209182019101613b46565b6001836020036101000a03801982511681845116808217855250505050505090500191505060006040518083038185875af1925050503d8060008114613bc7576040519150601f19603f3d011682016040523d82523d6000602084013e613bcc565b606091505b5050905080613b145760405162461bcd60e51b81526004018080602001828103825260238152602001806145f36023913960400191505060405180910390fd5b6060600282511015613c65576040805162461bcd60e51b815260206004820152601a60248201527f57616779754c6962726172793a20494e56414c49445f50415448000000000000604482015290519081900360640190fd5b815167ffffffffffffffff81118015613c7d57600080fd5b50604051908082528060200260200182016040528015613ca7578160200160208202803683370190505b5090508281600183510381518110613cbb57fe5b60209081029190910101528151600019015b801561335157600080613cfd87866001860381518110613ce957fe5b60200260200101518786815181106132fe57fe5b91509150613d1f848481518110613d1057fe5b60200260200101518383613d9c565b846001850381518110613d2e57fe5b6020908102919091010152505060001901613ccd565b808203828111156113c3576040805162461bcd60e51b815260206004820152601560248201527f64732d6d6174682d7375622d756e646572666c6f770000000000000000000000604482015290519081900360640190fd5b6000808411613ddc5760405162461bcd60e51b815260040180806020018281038252602881526020018061463d6028913960400191505060405180910390fd5b600083118015613dec5750600082115b613e275760405162461bcd60e51b81526004018080602001828103825260248152602001806146cb6024913960400191505060405180910390fd5b6000613e4b6103e8613e3f868863ffffffff61445416565b9063ffffffff61445416565b90506000613e656103e6613e3f868963ffffffff613d4416565b9050613e826001828481613e7557fe5b049063ffffffff6144c016565b9695505050505050565b6000808411613ecc5760405162461bcd60e51b81526004018080602001828103825260218152602001806146656021913960400191505060405180910390fd5b600083118015613edc5750600082115b613f175760405162461bcd60e51b81526004018080602001828103825260248152602001806146cb6024913960400191505060405180910390fd5b82613f28858463ffffffff61445416565b81613f2f57fe5b04949350505050565b600080826001600160a01b0316846001600160a01b03161415613f8c5760405162461bcd60e51b81526004018080602001828103825260218152602001806147116021913960400191505060405180910390fd5b826001600160a01b0316846001600160a01b031610613fac578284613faf565b83835b90925090506001600160a01b03821661400f576040805162461bcd60e51b815260206004820152601a60248201527f57616779754c6962726172793a205a45524f5f41444452455353000000000000604482015290519081900360640190fd5b9250929050565b604080516001600160a01b038481166024830152604480830185905283518084039091018152606490920183526020820180517bffffffffffffffffffffffffffffffffffffffffffffffffffffffff167fa9059cbb00000000000000000000000000000000000000000000000000000000178152925182516000946060949389169392918291908083835b602083106140c15780518252601f1990920191602091820191016140a2565b6001836020036101000a0380198251168184511680821785525050505050509050019150506000604051808303816000865af19150503d8060008114614123576040519150601f19603f3d011682016040523d82523d6000602084013e614128565b606091505b5091509150818015614156575080511580614156575080806020019051602081101561415357600080fd5b50515b6141a7576040805162461bcd60e51b815260206004820152601f60248201527f5472616e7366657248656c7065723a205452414e534645525f4641494c454400604482015290519081900360640190fd5b5050505050565b604080517fe6a439050000000000000000000000000000000000000000000000000000000081526001600160a01b03888116600483015287811660248301529151600092839283927f00000000000000000000000000000000000000000000000000000000000000009092169163e6a4390591604480820192602092909190829003018186803b15801561424157600080fd5b505afa158015614255573d6000803e3d6000fd5b505050506040513d602081101561426b57600080fd5b50516001600160a01b0316141561433757604080517fc9c653960000000000000000000000000000000000000000000000000000000081526001600160a01b038a81166004830152898116602483015291517f00000000000000000000000000000000000000000000000000000000000000009092169163c9c65396916044808201926020929091908290030181600087803b15801561430a57600080fd5b505af115801561431e573d6000803e3d6000fd5b505050506040513d602081101561433457600080fd5b50505b6000806143657f00000000000000000000000000000000000000000000000000000000000000008b8b614518565b91509150816000148015614377575080155b1561438757879350869250614447565b6000614394898484613e8c565b90508781116143e757858110156143dc5760405162461bcd60e51b81526004018080602001828103825260228152602001806146ef6022913960400191505060405180910390fd5b889450925082614445565b60006143f4898486613e8c565b90508981111561440057fe5b8781101561443f5760405162461bcd60e51b81526004018080602001828103825260228152602001806146a96022913960400191505060405180910390fd5b94508793505b505b5050965096945050505050565b600081158061446f5750508082028282828161446c57fe5b04145b6113c3576040805162461bcd60e51b815260206004820152601460248201527f64732d6d6174682d6d756c2d6f766572666c6f77000000000000000000000000604482015290519081900360640190fd5b808201828110156113c3576040805162461bcd60e51b815260206004820152601460248201527f64732d6d6174682d6164642d6f766572666c6f77000000000000000000000000604482015290519081900360640190fd5b60008060006145278585613f38565b509050614535868686613359565b50600080614544888888613359565b6001600160a01b0316630902f1ac6040518163ffffffff1660e01b815260040160606040518083038186803b15801561457c57600080fd5b505afa158015614590573d6000803e3d6000fd5b505050506040513d60608110156145a657600080fd5b5080516020909101516dffffffffffffffffffffffffffff91821693501690506001600160a01b03878116908416146145e05780826145e3565b81815b9099909850965050505050505056fe5472616e7366657248656c7065723a20564c585f5452414e534645525f4641494c45445761677975526f757465723a20494e53554646494349454e545f4f55545055545f414d4f554e5457616779754c6962726172793a20494e53554646494349454e545f4f55545055545f414d4f554e5457616779754c6962726172793a20494e53554646494349454e545f414d4f554e545761677975526f757465723a204558434553534956455f494e5055545f414d4f554e545761677975526f757465723a20494e53554646494349454e545f415f414d4f554e5457616779754c6962726172793a20494e53554646494349454e545f4c49515549444954595761677975526f757465723a20494e53554646494349454e545f425f414d4f554e5457616779754c6962726172793a204944454e544943414c5f4144445245535345535472616e7366657248656c7065723a205452414e534645525f46524f4d5f4641494c454457616779754c6962726172793a20494e53554646494349454e545f494e5055545f414d4f554e54a2646970667358221220b97764f3e7561354e90f123cd212af08f6bae829bebb48ea766dee1d09d2231864736f6c63430006060033",
  "immutableReferences": {
    "186": [
      {
        "length": 32,
        "start": 3576
      },
      {
        "length": 32,
        "start": 3941
      },
      {
        "length": 32,
        "start": 4538
      },
      {
        "length": 32,
        "start": 5018
      },
      {
        "length": 32,
        "start": 5075
      },
      {
        "length": 32,
        "start": 5564
      },
      {
        "length": 32,
        "start": 5779
      },
      {
        "length": 32,
        "start": 6218
      },
      {
        "length": 32,
        "start": 6482
      },
      {
        "length": 32,
        "start": 6754
      },
      {
        "length": 32,
        "start": 7676
      },
      {
        "length": 32,
        "start": 8099
      },
      {
        "length": 32,
        "start": 8519
      },
      {
        "length": 32,
        "start": 8881
      },
      {
        "length": 32,
        "start": 9298
      },
      {
        "length": 32,
        "start": 10118
      },
      {
        "length": 32,
        "start": 10292
      },
      {
        "length": 32,
        "start": 11239
      },
      {
        "length": 32,
        "start": 11689
      },
      {
        "length": 32,
        "start": 12356
      },
      {
        "length": 32,
        "start": 13536
      },
      {
        "length": 32,
        "start": 13603
      },
      {
        "length": 32,
        "start": 14400
      },
      {
        "length": 32,
        "start": 14790
      },
      {
        "length": 32,
        "start": 16888
      },
      {
        "length": 32,
        "start": 17087
      },
      {
        "length": 32,
        "start": 17215
      }
    ],
    "189": [
      {
        "length": 32,
        "start": 415
      },
      {
        "length": 32,
        "start": 3411
      },
      {
        "length": 32,
        "start": 3755
      },
      {
        "length": 32,
        "start": 3891
      },
      {
        "length": 32,
        "start": 4345
      },
      {
        "length": 32,
        "start": 4685
      },
      {
        "length": 32,
        "start": 4867
      },
      {
        "length": 32,
        "start": 5404
      },
      {
        "length": 32,
        "start": 5943
      },
      {
        "length": 32,
        "start": 6516
      },
      {
        "length": 32,
        "start": 6788
      },
      {
        "length": 32,
        "start": 7939
      },
      {
        "length": 32,
        "start": 8354
      },
      {
        "length": 32,
        "start": 8695
      },
      {
        "length": 32,
        "start": 8831
      },
      {
        "length": 32,
        "start": 9911
      },
      {
        "length": 32,
        "start": 9970
      },
      {
        "length": 32,
        "start": 10240
      },
      {
        "length": 32,
        "start": 10326
      },
      {
        "length": 32,
        "start": 10378
      },
      {
        "length": 32,
        "start": 10494
      },
      {
        "length": 32,
        "start": 10923
      },
      {
        "length": 32,
        "start": 11098
      },
      {
        "length": 32,
        "start": 11356
      },
      {
        "length": 32,
        "start": 11523
      },
      {
        "length": 32,
        "start": 11639
      },
      {
        "length": 32,
        "start": 12214
      }
    ]
  },
  "source": "pragma solidity =0.6.6;\r\n\r\nimport '@uniswap/v2-core/contracts/interfaces/IUniswapV2Factory.sol';\r\n\r\nimport './libraries/TransferHelper.sol';\r\nimport './interfaces/IWagyuRouter02.sol';\r\nimport './libraries/WagyuLibrary.sol';\r\nimport './libraries/SafeMath.sol';\r\nimport './interfaces/IERC20.sol';\r\nimport './interfaces/IWVLX.sol';\r\n\r\ncontract WagyuRouter is IWagyuRouter02 {\r\n    using SafeMath for uint;\r\n\r\n    address public immutable override factory;\r\n    address public immutable override WVLX;\r\n\r\n    modifier ensure(uint deadline) {\r\n        require(deadline >= block.timestamp, 'WagyuRouter: EXPIRED');\r\n        _;\r\n    }\r\n\r\n    constructor(address _factory, address _WVLX) public {\r\n        factory = _factory;\r\n        WVLX = _WVLX;\r\n    }\r\n\r\n    receive() external payable {\r\n        assert(msg.sender == WVLX); // only accept VLX via fallback from the WVLX contract\r\n    }\r\n\r\n    // **** ADD LIQUIDITY ****\r\n    function _addLiquidity(\r\n        address tokenA,\r\n        address tokenB,\r\n        uint amountADesired,\r\n        uint amountBDesired,\r\n        uint amountAMin,\r\n        uint amountBMin\r\n    ) internal virtual returns (uint amountA, uint amountB) {\r\n        // create the pair if it doesn't exist yet\r\n        if (IUniswapV2Factory(factory).getPair(tokenA, tokenB) == address(0)) {\r\n            IUniswapV2Factory(factory).createPair(tokenA, tokenB);\r\n        }\r\n        (uint reserveA, uint reserveB) = WagyuLibrary.getReserves(factory, tokenA, tokenB);\r\n        if (reserveA == 0 && reserveB == 0) {\r\n            (amountA, amountB) = (amountADesired, amountBDesired);\r\n        } else {\r\n            uint amountBOptimal = WagyuLibrary.quote(amountADesired, reserveA, reserveB);\r\n            if (amountBOptimal <= amountBDesired) {\r\n                require(amountBOptimal >= amountBMin, 'WagyuRouter: INSUFFICIENT_B_AMOUNT');\r\n                (amountA, amountB) = (amountADesired, amountBOptimal);\r\n            } else {\r\n                uint amountAOptimal = WagyuLibrary.quote(amountBDesired, reserveB, reserveA);\r\n                assert(amountAOptimal <= amountADesired);\r\n                require(amountAOptimal >= amountAMin, 'WagyuRouter: INSUFFICIENT_A_AMOUNT');\r\n                (amountA, amountB) = (amountAOptimal, amountBDesired);\r\n            }\r\n        }\r\n    }\r\n    function addLiquidity(\r\n        address tokenA,\r\n        address tokenB,\r\n        uint amountADesired,\r\n        uint amountBDesired,\r\n        uint amountAMin,\r\n        uint amountBMin,\r\n        address to,\r\n        uint deadline\r\n    ) external virtual override ensure(deadline) returns (uint amountA, uint amountB, uint liquidity) {\r\n        (amountA, amountB) = _addLiquidity(tokenA, tokenB, amountADesired, amountBDesired, amountAMin, amountBMin);\r\n        address pair = WagyuLibrary.pairFor(factory, tokenA, tokenB);\r\n        TransferHelper.safeTransferFrom(tokenA, msg.sender, pair, amountA);\r\n        TransferHelper.safeTransferFrom(tokenB, msg.sender, pair, amountB);\r\n        liquidity = IUniswapV2Pair(pair).mint(to);\r\n    }\r\n    function addLiquidityVLX(\r\n        address token,\r\n        uint amountTokenDesired,\r\n        uint amountTokenMin,\r\n        uint amountVLXMin,\r\n        address to,\r\n        uint deadline\r\n    ) external virtual override payable ensure(deadline) returns (uint amountToken, uint amountVLX, uint liquidity) {\r\n        (amountToken, amountVLX) = _addLiquidity(\r\n            token,\r\n            WVLX,\r\n            amountTokenDesired,\r\n            msg.value,\r\n            amountTokenMin,\r\n            amountVLXMin\r\n        );\r\n        address pair = WagyuLibrary.pairFor(factory, token, WVLX);\r\n        TransferHelper.safeTransferFrom(token, msg.sender, pair, amountToken);\r\n        IWVLX(WVLX).deposit{value: amountVLX}();\r\n        assert(IWVLX(WVLX).transfer(pair, amountVLX));\r\n        liquidity = IUniswapV2Pair(pair).mint(to);\r\n        // refund dust vlx, if any\r\n        if (msg.value > amountVLX) TransferHelper.safeTransferVLX(msg.sender, msg.value - amountVLX);\r\n    }\r\n\r\n    // **** REMOVE LIQUIDITY ****\r\n    function removeLiquidity(\r\n        address tokenA,\r\n        address tokenB,\r\n        uint liquidity,\r\n        uint amountAMin,\r\n        uint amountBMin,\r\n        address to,\r\n        uint deadline\r\n    ) public virtual override ensure(deadline) returns (uint amountA, uint amountB) {\r\n        address pair = WagyuLibrary.pairFor(factory, tokenA, tokenB);\r\n        IUniswapV2Pair(pair).transferFrom(msg.sender, pair, liquidity); // send liquidity to pair\r\n        (uint amount0, uint amount1) = IUniswapV2Pair(pair).burn(to);\r\n        (address token0,) = WagyuLibrary.sortTokens(tokenA, tokenB);\r\n        (amountA, amountB) = tokenA == token0 ? (amount0, amount1) : (amount1, amount0);\r\n        require(amountA >= amountAMin, 'WagyuRouter: INSUFFICIENT_A_AMOUNT');\r\n        require(amountB >= amountBMin, 'WagyuRouter: INSUFFICIENT_B_AMOUNT');\r\n    }\r\n    function removeLiquidityVLX(\r\n        address token,\r\n        uint liquidity,\r\n        uint amountTokenMin,\r\n        uint amountVLXMin,\r\n        address to,\r\n        uint deadline\r\n    ) public virtual override ensure(deadline) returns (uint amountToken, uint amountVLX) {\r\n        (amountToken, amountVLX) = removeLiquidity(\r\n            token,\r\n            WVLX,\r\n            liquidity,\r\n            amountTokenMin,\r\n            amountVLXMin,\r\n            address(this),\r\n            deadline\r\n        );\r\n        TransferHelper.safeTransfer(token, to, amountToken);\r\n        IWVLX(WVLX).withdraw(amountVLX);\r\n        TransferHelper.safeTransferVLX(to, amountVLX);\r\n    }\r\n    function removeLiquidityWithPermit(\r\n        address tokenA,\r\n        address tokenB,\r\n        uint liquidity,\r\n        uint amountAMin,\r\n        uint amountBMin,\r\n        address to,\r\n        uint deadline,\r\n        bool approveMax, uint8 v, bytes32 r, bytes32 s\r\n    ) external virtual override returns (uint amountA, uint amountB) {\r\n        address pair = WagyuLibrary.pairFor(factory, tokenA, tokenB);\r\n        uint value = approveMax ? uint(-1) : liquidity;\r\n        IUniswapV2Pair(pair).permit(msg.sender, address(this), value, deadline, v, r, s);\r\n        (amountA, amountB) = removeLiquidity(tokenA, tokenB, liquidity, amountAMin, amountBMin, to, deadline);\r\n    }\r\n    function removeLiquidityVLXWithPermit(\r\n        address token,\r\n        uint liquidity,\r\n        uint amountTokenMin,\r\n        uint amountVLXMin,\r\n        address to,\r\n        uint deadline,\r\n        bool approveMax, uint8 v, bytes32 r, bytes32 s\r\n    ) external virtual override returns (uint amountToken, uint amountVLX) {\r\n        address pair = WagyuLibrary.pairFor(factory, token, WVLX);\r\n        uint value = approveMax ? uint(-1) : liquidity;\r\n        IUniswapV2Pair(pair).permit(msg.sender, address(this), value, deadline, v, r, s);\r\n        (amountToken, amountVLX) = removeLiquidityVLX(token, liquidity, amountTokenMin, amountVLXMin, to, deadline);\r\n    }\r\n\r\n    // **** REMOVE LIQUIDITY (supporting fee-on-transfer tokens) ****\r\n    function removeLiquidityVLXSupportingFeeOnTransferTokens(\r\n        address token,\r\n        uint liquidity,\r\n        uint amountTokenMin,\r\n        uint amountVLXMin,\r\n        address to,\r\n        uint deadline\r\n    ) public virtual override ensure(deadline) returns (uint amountVLX) {\r\n        (, amountVLX) = removeLiquidity(\r\n            token,\r\n            WVLX,\r\n            liquidity,\r\n            amountTokenMin,\r\n            amountVLXMin,\r\n            address(this),\r\n            deadline\r\n        );\r\n        TransferHelper.safeTransfer(token, to, IERC20(token).balanceOf(address(this)));\r\n        IWVLX(WVLX).withdraw(amountVLX);\r\n        TransferHelper.safeTransferVLX(to, amountVLX);\r\n    }\r\n    function removeLiquidityVLXWithPermitSupportingFeeOnTransferTokens(\r\n        address token,\r\n        uint liquidity,\r\n        uint amountTokenMin,\r\n        uint amountVLXMin,\r\n        address to,\r\n        uint deadline,\r\n        bool approveMax, uint8 v, bytes32 r, bytes32 s\r\n    ) external virtual override returns (uint amountVLX) {\r\n        address pair = WagyuLibrary.pairFor(factory, token, WVLX);\r\n        uint value = approveMax ? uint(-1) : liquidity;\r\n        IUniswapV2Pair(pair).permit(msg.sender, address(this), value, deadline, v, r, s);\r\n        amountVLX = removeLiquidityVLXSupportingFeeOnTransferTokens(\r\n            token, liquidity, amountTokenMin, amountVLXMin, to, deadline\r\n        );\r\n    }\r\n\r\n    // **** SWAP ****\r\n    // requires the initial amount to have already been sent to the first pair\r\n    function _swap(uint[] memory amounts, address[] memory path, address _to) internal virtual {\r\n        for (uint i; i < path.length - 1; i++) {\r\n            (address input, address output) = (path[i], path[i + 1]);\r\n            (address token0,) = WagyuLibrary.sortTokens(input, output);\r\n            uint amountOut = amounts[i + 1];\r\n            (uint amount0Out, uint amount1Out) = input == token0 ? (uint(0), amountOut) : (amountOut, uint(0));\r\n            address to = i < path.length - 2 ? WagyuLibrary.pairFor(factory, output, path[i + 2]) : _to;\r\n            IUniswapV2Pair(WagyuLibrary.pairFor(factory, input, output)).swap(\r\n                amount0Out, amount1Out, to, new bytes(0)\r\n            );\r\n        }\r\n    }\r\n    function swapExactTokensForTokens(\r\n        uint amountIn,\r\n        uint amountOutMin,\r\n        address[] calldata path,\r\n        address to,\r\n        uint deadline\r\n    ) external virtual override ensure(deadline) returns (uint[] memory amounts) {\r\n        amounts = WagyuLibrary.getAmountsOut(factory, amountIn, path);\r\n        require(amounts[amounts.length - 1] >= amountOutMin, 'WagyuRouter: INSUFFICIENT_OUTPUT_AMOUNT');\r\n        TransferHelper.safeTransferFrom(\r\n            path[0], msg.sender, WagyuLibrary.pairFor(factory, path[0], path[1]), amounts[0]\r\n        );\r\n        _swap(amounts, path, to);\r\n    }\r\n    function swapTokensForExactTokens(\r\n        uint amountOut,\r\n        uint amountInMax,\r\n        address[] calldata path,\r\n        address to,\r\n        uint deadline\r\n    ) external virtual override ensure(deadline) returns (uint[] memory amounts) {\r\n        amounts = WagyuLibrary.getAmountsIn(factory, amountOut, path);\r\n        require(amounts[0] <= amountInMax, 'WagyuRouter: EXCESSIVE_INPUT_AMOUNT');\r\n        TransferHelper.safeTransferFrom(\r\n            path[0], msg.sender, WagyuLibrary.pairFor(factory, path[0], path[1]), amounts[0]\r\n        );\r\n        _swap(amounts, path, to);\r\n    }\r\n    function swapExactVLXForTokens(uint amountOutMin, address[] calldata path, address to, uint deadline)\r\n        external\r\n        virtual\r\n        override\r\n        payable\r\n        ensure(deadline)\r\n        returns (uint[] memory amounts)\r\n    {\r\n        require(path[0] == WVLX, 'WagyuRouter: INVALID_PATH');\r\n        amounts = WagyuLibrary.getAmountsOut(factory, msg.value, path);\r\n        require(amounts[amounts.length - 1] >= amountOutMin, 'WagyuRouter: INSUFFICIENT_OUTPUT_AMOUNT');\r\n        IWVLX(WVLX).deposit{value: amounts[0]}();\r\n        assert(IWVLX(WVLX).transfer(WagyuLibrary.pairFor(factory, path[0], path[1]), amounts[0]));\r\n        _swap(amounts, path, to);\r\n    }\r\n    function swapTokensForExactVLX(uint amountOut, uint amountInMax, address[] calldata path, address to, uint deadline)\r\n        external\r\n        virtual\r\n        override\r\n        ensure(deadline)\r\n        returns (uint[] memory amounts)\r\n    {\r\n        require(path[path.length - 1] == WVLX, 'WagyuRouter: INVALID_PATH');\r\n        amounts = WagyuLibrary.getAmountsIn(factory, amountOut, path);\r\n        require(amounts[0] <= amountInMax, 'WagyuRouter: EXCESSIVE_INPUT_AMOUNT');\r\n        TransferHelper.safeTransferFrom(\r\n            path[0], msg.sender, WagyuLibrary.pairFor(factory, path[0], path[1]), amounts[0]\r\n        );\r\n        _swap(amounts, path, address(this));\r\n        IWVLX(WVLX).withdraw(amounts[amounts.length - 1]);\r\n        TransferHelper.safeTransferVLX(to, amounts[amounts.length - 1]);\r\n    }\r\n    function swapExactTokensForVLX(uint amountIn, uint amountOutMin, address[] calldata path, address to, uint deadline)\r\n        external\r\n        virtual\r\n        override\r\n        ensure(deadline)\r\n        returns (uint[] memory amounts)\r\n    {\r\n        require(path[path.length - 1] == WVLX, 'WagyuRouter: INVALID_PATH');\r\n        amounts = WagyuLibrary.getAmountsOut(factory, amountIn, path);\r\n        require(amounts[amounts.length - 1] >= amountOutMin, 'WagyuRouter: INSUFFICIENT_OUTPUT_AMOUNT');\r\n        TransferHelper.safeTransferFrom(\r\n            path[0], msg.sender, WagyuLibrary.pairFor(factory, path[0], path[1]), amounts[0]\r\n        );\r\n        _swap(amounts, path, address(this));\r\n        IWVLX(WVLX).withdraw(amounts[amounts.length - 1]);\r\n        TransferHelper.safeTransferVLX(to, amounts[amounts.length - 1]);\r\n    }\r\n    function swapVLXForExactTokens(uint amountOut, address[] calldata path, address to, uint deadline)\r\n        external\r\n        virtual\r\n        override\r\n        payable\r\n        ensure(deadline)\r\n        returns (uint[] memory amounts)\r\n    {\r\n        require(path[0] == WVLX, 'WagyuRouter: INVALID_PATH');\r\n        amounts = WagyuLibrary.getAmountsIn(factory, amountOut, path);\r\n        require(amounts[0] <= msg.value, 'WagyuRouter: EXCESSIVE_INPUT_AMOUNT');\r\n        IWVLX(WVLX).deposit{value: amounts[0]}();\r\n        assert(IWVLX(WVLX).transfer(WagyuLibrary.pairFor(factory, path[0], path[1]), amounts[0]));\r\n        _swap(amounts, path, to);\r\n        // refund dust vlx, if any\r\n        if (msg.value > amounts[0]) TransferHelper.safeTransferVLX(msg.sender, msg.value - amounts[0]);\r\n    }\r\n\r\n    // **** SWAP (supporting fee-on-transfer tokens) ****\r\n    // requires the initial amount to have already been sent to the first pair\r\n    function _swapSupportingFeeOnTransferTokens(address[] memory path, address _to) internal virtual {\r\n        for (uint i; i < path.length - 1; i++) {\r\n            (address input, address output) = (path[i], path[i + 1]);\r\n            (address token0,) = WagyuLibrary.sortTokens(input, output);\r\n            IUniswapV2Pair pair = IUniswapV2Pair(WagyuLibrary.pairFor(factory, input, output));\r\n            uint amountInput;\r\n            uint amountOutput;\r\n            { // scope to avoid stack too deep errors\r\n            (uint reserve0, uint reserve1,) = pair.getReserves();\r\n            (uint reserveInput, uint reserveOutput) = input == token0 ? (reserve0, reserve1) : (reserve1, reserve0);\r\n            amountInput = IERC20(input).balanceOf(address(pair)).sub(reserveInput);\r\n            amountOutput = WagyuLibrary.getAmountOut(amountInput, reserveInput, reserveOutput);\r\n            }\r\n            (uint amount0Out, uint amount1Out) = input == token0 ? (uint(0), amountOutput) : (amountOutput, uint(0));\r\n            address to = i < path.length - 2 ? WagyuLibrary.pairFor(factory, output, path[i + 2]) : _to;\r\n            pair.swap(amount0Out, amount1Out, to, new bytes(0));\r\n        }\r\n    }\r\n    function swapExactTokensForTokensSupportingFeeOnTransferTokens(\r\n        uint amountIn,\r\n        uint amountOutMin,\r\n        address[] calldata path,\r\n        address to,\r\n        uint deadline\r\n    ) external virtual override ensure(deadline) {\r\n        TransferHelper.safeTransferFrom(\r\n            path[0], msg.sender, WagyuLibrary.pairFor(factory, path[0], path[1]), amountIn\r\n        );\r\n        uint balanceBefore = IERC20(path[path.length - 1]).balanceOf(to);\r\n        _swapSupportingFeeOnTransferTokens(path, to);\r\n        require(\r\n            IERC20(path[path.length - 1]).balanceOf(to).sub(balanceBefore) >= amountOutMin,\r\n            'WagyuRouter: INSUFFICIENT_OUTPUT_AMOUNT'\r\n        );\r\n    }\r\n    function swapExactVLXForTokensSupportingFeeOnTransferTokens(\r\n        uint amountOutMin,\r\n        address[] calldata path,\r\n        address to,\r\n        uint deadline\r\n    )\r\n        external\r\n        virtual\r\n        override\r\n        payable\r\n        ensure(deadline)\r\n    {\r\n        require(path[0] == WVLX, 'WagyuRouter: INVALID_PATH');\r\n        uint amountIn = msg.value;\r\n        IWVLX(WVLX).deposit{value: amountIn}();\r\n        assert(IWVLX(WVLX).transfer(WagyuLibrary.pairFor(factory, path[0], path[1]), amountIn));\r\n        uint balanceBefore = IERC20(path[path.length - 1]).balanceOf(to);\r\n        _swapSupportingFeeOnTransferTokens(path, to);\r\n        require(\r\n            IERC20(path[path.length - 1]).balanceOf(to).sub(balanceBefore) >= amountOutMin,\r\n            'WagyuRouter: INSUFFICIENT_OUTPUT_AMOUNT'\r\n        );\r\n    }\r\n    function swapExactTokensForVLXSupportingFeeOnTransferTokens(\r\n        uint amountIn,\r\n        uint amountOutMin,\r\n        address[] calldata path,\r\n        address to,\r\n        uint deadline\r\n    )\r\n        external\r\n        virtual\r\n        override\r\n        ensure(deadline)\r\n    {\r\n        require(path[path.length - 1] == WVLX, 'WagyuRouter: INVALID_PATH');\r\n        TransferHelper.safeTransferFrom(\r\n            path[0], msg.sender, WagyuLibrary.pairFor(factory, path[0], path[1]), amountIn\r\n        );\r\n        _swapSupportingFeeOnTransferTokens(path, address(this));\r\n        uint amountOut = IERC20(WVLX).balanceOf(address(this));\r\n        require(amountOut >= amountOutMin, 'WagyuRouter: INSUFFICIENT_OUTPUT_AMOUNT');\r\n        IWVLX(WVLX).withdraw(amountOut);\r\n        TransferHelper.safeTransferVLX(to, amountOut);\r\n    }\r\n\r\n    // **** LIBRARY FUNCTIONS ****\r\n    function quote(uint amountA, uint reserveA, uint reserveB) public pure virtual override returns (uint amountB) {\r\n        return WagyuLibrary.quote(amountA, reserveA, reserveB);\r\n    }\r\n\r\n    function getAmountOut(uint amountIn, uint reserveIn, uint reserveOut)\r\n        public\r\n        pure\r\n        virtual\r\n        override\r\n        returns (uint amountOut)\r\n    {\r\n        return WagyuLibrary.getAmountOut(amountIn, reserveIn, reserveOut);\r\n    }\r\n\r\n    function getAmountIn(uint amountOut, uint reserveIn, uint reserveOut)\r\n        public\r\n        pure\r\n        virtual\r\n        override\r\n        returns (uint amountIn)\r\n    {\r\n        return WagyuLibrary.getAmountIn(amountOut, reserveIn, reserveOut);\r\n    }\r\n\r\n    function getAmountsOut(uint amountIn, address[] memory path)\r\n        public\r\n        view\r\n        virtual\r\n        override\r\n        returns (uint[] memory amounts)\r\n    {\r\n        return WagyuLibrary.getAmountsOut(factory, amountIn, path);\r\n    }\r\n\r\n    function getAmountsIn(uint amountOut, address[] memory path)\r\n        public\r\n        view\r\n        virtual\r\n        override\r\n        returns (uint[] memory amounts)\r\n    {\r\n        return WagyuLibrary.getAmountsIn(factory, amountOut, path);\r\n    }\r\n}\r\n",
  "sourcePath": "/mnt/e/Project/wagyu-swap/wagyu-swap-periphery/contracts/WagyuRouter.sol",
  "compiler": {
    "name": "solc",
    "version": "0.6.6+commit.6c089d02.Emscripten.clang"
  },
  "schemaVersion": "3.4.1",
  "updatedAt": "2021-07-02T02:00:45.730Z",
  "networkType": "ethereum",
  "devdoc": {
    "methods": {}
  },
  "userdoc": {
    "methods": {}
  }
}